:0600000000F018EF00F013
:10000800FFFF1982A4A00BEF00F00EEF00F0FFFF36
:1000180014EF00F0FFFFA490010E0D6ED8EC04F071
:0C002800FFFF19921100FFFFE9EF04F048
:0B0600000052656365697665640000C8
:10060C00FFFF186E080E6F6E1850D8B410EF03F081
:10061C0013EF03F0FFFFC2EF03F0FFFF11C015F063
:10062C0012C016F016341632153216341632153234
:10063C0016341632153215C041FF11C015F0050ED7
:10064C00166EFFFFD8901536162E27EF03F015C047
:10065C0042FF310E156EBB0EFFFFE82EFDD7152E97
:10066C00FBD72FEE45F010C0DFFF13C0F6FF14C010
:10067C00F7FF0800FFFFF5CF15F015C046FF010E80
:10068C001324156E000E1420166E15C0F6FF16C03E
:10069C00F7FF0800FFFFF5CF17F017C047FF020E5A
:1006AC001324156E000E1420166E15C0F6FF16C01E
:1006BC00F7FF0800FFFFF5CF17F017C048FF030E38
:1006CC001324156E000E1420166E15C0F6FF16C0FE
:1006DC00F7FF0800FFFFF5CF17F017C049FF040E16
:1006EC001324156E000E1420166E15C0F6FF16C0DE
:1006FC00F7FF0800FFFFF5CF17F017C04AFF050EF4
:10070C001324156E000E1420166E15C0F6FF16C0BD
:10071C00F7FF0800FFFFF5CF17F017C04BFF060ED1
:10072C001324156E000E1420166E15C0F6FF16C09D
:10073C00F7FF0800FFFFF5CF17F017C04CFF070EAF
:10074C001324156E000E1420166E15C0F6FF16C07D
:10075C00F7FF0800FFFFF5CF17F017C04DFF080E8D
:10076C00E8CF40FF310E156EBB0EFFFFE82EFDD714
:10077C00152EFBD7080E6F6EFFFF1200FFFFFFFF59
:10078C00E00E6F6EFFFF6EAECEEF03F0D1EF03F015
:10079C00FFFFC8EF03F0FFFF7D0E10181110D8A457
:1007AC00DAEF03F0DDEF03F0FFFFFEEF03F0FFFFE6
:1007BC00C10E706EB10E716E450E726EC10E701858
:1007CC00D8A4EBEF03F0EEEF03F0FFFF2EEF04F0F5
:1007DC00FFFFB10E7118D8A4F6EF03F0F9EF03F098
:1007EC00FFFF2EEF04F0FFFFFFFF72502EEF04F01F
:1007FC00FFFFFA0E10181110D8A407EF04F00AEF3F
:10080C0004F0FFFF29EF04F0FFFFC10E706EAE0E77
:10081C00716EA50E726EC10E7018D8A418EF04F08C
:10082C001BEF04F0FFFF2EEF04F0FFFFAE0E71186C
:10083C00D8A423EF04F026EF04F0FFFF2EEF04F012
:10084C00FFFFFAEF03F0FFFF200E736E080E6F6EC2
:10085C00FFFF1200FFFFFFFF93908190F8EC04F074
:10086C00FDEC04F0000E116EFA0E106EC5EC03F0E8
:10087C00B4EC04F0FFFF0D50D8B447EF04F04AEF8E
:10088C0004F0FFFF40EF04F0FFFF000E0D6E7BEC59
:10089C0004F0C7EC04F00C040B10D8A458EF04F0CF
:1008AC005BEF04F0FFFF40EF04F0FFFFAA0E01180E
:1008BC00D8A463EF04F066EF04F0FFFF76EF04F0CA
:1008CC00FFFF080E106E000E126E5F0E116E010E01
:1008DC00136E060E146E010E06EC03F040EF04F0DE
:1008EC00FFFF40EF04F018EF00F0FFFF0E0E6F6EED
:1008FC0065CF09F00A6AF80E106E070E116E615082
:10090C00126E136AD89012361336D89012361336EC
:10091C00D890123613361050121611501316623826
:10092C00E842070B1F0B146E156A125014100B6E55
:10093C00135015100C6E66CF01F067CF02F068CF24
:10094C0003F069CF04F06ACF05F06BCF06F06CCFE3
:10095C0007F06DCF08F0609E1200FFFFFFFFA38031
:10096C00A5800E0E6F6E000EE8CF00FF000EE8CFD4
:10097C0001FF000EE8CF19FF000EE8CF18FF1200A0
:10098C00FFFFFFFF8180020E116EE80E106E520EFB
:10099C00FFFFE82EFDD7102EFBD7112EF9D7819033
:1009AC001200FFFFFFFF8180020E0F6EE80E0E6E2D
:1009BC00520EFFFFE82EFDD70E2EFBD70F2EF9D7C8
:1009CC0081901200FFFF00EE01F00D0EEE6AE806BA
:1009DC00FDE119901992000EF86E060EF76E0001EB
:1009EC0031EF04F0FFFFF28EF28C1200FFFFFFFFDD
:0A09FC00939493861200FFFFFFFFA3
:020000040020DA
:08000000FFFFFFFFFFFFFFFF00
:020000040030CA
:04000000FF220F0EBE
:0800060080FF0FC00FE00F4066
:00000001FF
